{
    "_format": "hh-sol-artifact-1",
    "contractName": "BoostMeCore_v1",
    "sourceName": "contracts/BoostMeCore.sol",
    "abi": [
        {
            "inputs": [
                {
                    "internalType": "string",
                    "name": "_uri",
                    "type": "string"
                },
                {
                    "internalType": "uint256",
                    "name": "_singleCollateralMaxOwners",
                    "type": "uint256"
                }
            ],
            "stateMutability": "nonpayable",
            "type": "constructor"
        },
        {
            "inputs": [
                {
                    "internalType": "address",
                    "name": "sender",
                    "type": "address"
                },
                {
                    "internalType": "uint256",
                    "name": "balance",
                    "type": "uint256"
                },
                {
                    "internalType": "uint256",
                    "name": "needed",
                    "type": "uint256"
                },
                {
                    "internalType": "uint256",
                    "name": "tokenId",
                    "type": "uint256"
                }
            ],
            "name": "ERC1155InsufficientBalance",
            "type": "error"
        },
        {
            "inputs": [
                {
                    "internalType": "address",
                    "name": "approver",
                    "type": "address"
                }
            ],
            "name": "ERC1155InvalidApprover",
            "type": "error"
        },
        {
            "inputs": [
                {
                    "internalType": "uint256",
                    "name": "idsLength",
                    "type": "uint256"
                },
                {
                    "internalType": "uint256",
                    "name": "valuesLength",
                    "type": "uint256"
                }
            ],
            "name": "ERC1155InvalidArrayLength",
            "type": "error"
        },
        {
            "inputs": [
                {
                    "internalType": "address",
                    "name": "operator",
                    "type": "address"
                }
            ],
            "name": "ERC1155InvalidOperator",
            "type": "error"
        },
        {
            "inputs": [
                {
                    "internalType": "address",
                    "name": "receiver",
                    "type": "address"
                }
            ],
            "name": "ERC1155InvalidReceiver",
            "type": "error"
        },
        {
            "inputs": [
                {
                    "internalType": "address",
                    "name": "sender",
                    "type": "address"
                }
            ],
            "name": "ERC1155InvalidSender",
            "type": "error"
        },
        {
            "inputs": [
                {
                    "internalType": "address",
                    "name": "operator",
                    "type": "address"
                },
                {
                    "internalType": "address",
                    "name": "owner",
                    "type": "address"
                }
            ],
            "name": "ERC1155MissingApprovalForAll",
            "type": "error"
        },
        {
            "anonymous": false,
            "inputs": [
                {
                    "indexed": true,
                    "internalType": "address",
                    "name": "account",
                    "type": "address"
                },
                {
                    "indexed": true,
                    "internalType": "address",
                    "name": "operator",
                    "type": "address"
                },
                {
                    "indexed": false,
                    "internalType": "bool",
                    "name": "approved",
                    "type": "bool"
                }
            ],
            "name": "ApprovalForAll",
            "type": "event"
        },
        {
            "anonymous": false,
            "inputs": [
                {
                    "indexed": true,
                    "internalType": "address",
                    "name": "operator",
                    "type": "address"
                },
                {
                    "indexed": true,
                    "internalType": "address",
                    "name": "from",
                    "type": "address"
                },
                {
                    "indexed": true,
                    "internalType": "address",
                    "name": "to",
                    "type": "address"
                },
                {
                    "indexed": false,
                    "internalType": "uint256[]",
                    "name": "ids",
                    "type": "uint256[]"
                },
                {
                    "indexed": false,
                    "internalType": "uint256[]",
                    "name": "values",
                    "type": "uint256[]"
                }
            ],
            "name": "TransferBatch",
            "type": "event"
        },
        {
            "anonymous": false,
            "inputs": [
                {
                    "indexed": true,
                    "internalType": "address",
                    "name": "operator",
                    "type": "address"
                },
                {
                    "indexed": true,
                    "internalType": "address",
                    "name": "from",
                    "type": "address"
                },
                {
                    "indexed": true,
                    "internalType": "address",
                    "name": "to",
                    "type": "address"
                },
                {
                    "indexed": false,
                    "internalType": "uint256",
                    "name": "id",
                    "type": "uint256"
                },
                {
                    "indexed": false,
                    "internalType": "uint256",
                    "name": "value",
                    "type": "uint256"
                }
            ],
            "name": "TransferSingle",
            "type": "event"
        },
        {
            "anonymous": false,
            "inputs": [
                {
                    "indexed": false,
                    "internalType": "string",
                    "name": "value",
                    "type": "string"
                },
                {
                    "indexed": true,
                    "internalType": "uint256",
                    "name": "id",
                    "type": "uint256"
                }
            ],
            "name": "URI",
            "type": "event"
        },
        {
            "inputs": [],
            "name": "CLOTHES",
            "outputs": [
                {
                    "internalType": "uint256",
                    "name": "",
                    "type": "uint256"
                }
            ],
            "stateMutability": "view",
            "type": "function"
        },
        {
            "inputs": [],
            "name": "PRESS_CONFERENCES",
            "outputs": [
                {
                    "internalType": "uint256",
                    "name": "",
                    "type": "uint256"
                }
            ],
            "stateMutability": "view",
            "type": "function"
        },
        {
            "inputs": [],
            "name": "SOCIAL_MEDIAS",
            "outputs": [
                {
                    "internalType": "uint256",
                    "name": "",
                    "type": "uint256"
                }
            ],
            "stateMutability": "view",
            "type": "function"
        },
        {
            "inputs": [
                {
                    "internalType": "address",
                    "name": "account",
                    "type": "address"
                },
                {
                    "internalType": "uint256",
                    "name": "id",
                    "type": "uint256"
                }
            ],
            "name": "balanceOf",
            "outputs": [
                {
                    "internalType": "uint256",
                    "name": "",
                    "type": "uint256"
                }
            ],
            "stateMutability": "view",
            "type": "function"
        },
        {
            "inputs": [
                {
                    "internalType": "address[]",
                    "name": "accounts",
                    "type": "address[]"
                },
                {
                    "internalType": "uint256[]",
                    "name": "ids",
                    "type": "uint256[]"
                }
            ],
            "name": "balanceOfBatch",
            "outputs": [
                {
                    "internalType": "uint256[]",
                    "name": "",
                    "type": "uint256[]"
                }
            ],
            "stateMutability": "view",
            "type": "function"
        },
        {
            "inputs": [
                {
                    "internalType": "address",
                    "name": "account",
                    "type": "address"
                },
                {
                    "internalType": "address",
                    "name": "operator",
                    "type": "address"
                }
            ],
            "name": "isApprovedForAll",
            "outputs": [
                {
                    "internalType": "bool",
                    "name": "",
                    "type": "bool"
                }
            ],
            "stateMutability": "view",
            "type": "function"
        },
        {
            "inputs": [
                {
                    "internalType": "bool",
                    "name": "_multiple",
                    "type": "bool"
                },
                {
                    "internalType": "uint256[]",
                    "name": "_tokens",
                    "type": "uint256[]"
                },
                {
                    "internalType": "uint256[]",
                    "name": "_amounts",
                    "type": "uint256[]"
                }
            ],
            "name": "mintAsInvestor",
            "outputs": [],
            "stateMutability": "payable",
            "type": "function"
        },
        {
            "inputs": [],
            "name": "owner",
            "outputs": [
                {
                    "internalType": "address payable",
                    "name": "",
                    "type": "address"
                }
            ],
            "stateMutability": "view",
            "type": "function"
        },
        {
            "inputs": [],
            "name": "ownerNotes",
            "outputs": [
                {
                    "internalType": "bytes32",
                    "name": "",
                    "type": "bytes32"
                }
            ],
            "stateMutability": "view",
            "type": "function"
        },
        {
            "inputs": [
                {
                    "internalType": "uint256",
                    "name": "",
                    "type": "uint256"
                }
            ],
            "name": "ownershipCount",
            "outputs": [
                {
                    "internalType": "uint256",
                    "name": "",
                    "type": "uint256"
                }
            ],
            "stateMutability": "view",
            "type": "function"
        },
        {
            "inputs": [
                {
                    "internalType": "uint256",
                    "name": "",
                    "type": "uint256"
                }
            ],
            "name": "ownershipCountCapacity",
            "outputs": [
                {
                    "internalType": "uint256",
                    "name": "",
                    "type": "uint256"
                }
            ],
            "stateMutability": "view",
            "type": "function"
        },
        {
            "inputs": [
                {
                    "internalType": "address",
                    "name": "from",
                    "type": "address"
                },
                {
                    "internalType": "address",
                    "name": "to",
                    "type": "address"
                },
                {
                    "internalType": "uint256[]",
                    "name": "ids",
                    "type": "uint256[]"
                },
                {
                    "internalType": "uint256[]",
                    "name": "values",
                    "type": "uint256[]"
                },
                {
                    "internalType": "bytes",
                    "name": "data",
                    "type": "bytes"
                }
            ],
            "name": "safeBatchTransferFrom",
            "outputs": [],
            "stateMutability": "nonpayable",
            "type": "function"
        },
        {
            "inputs": [
                {
                    "internalType": "address",
                    "name": "from",
                    "type": "address"
                },
                {
                    "internalType": "address",
                    "name": "to",
                    "type": "address"
                },
                {
                    "internalType": "uint256",
                    "name": "id",
                    "type": "uint256"
                },
                {
                    "internalType": "uint256",
                    "name": "value",
                    "type": "uint256"
                },
                {
                    "internalType": "bytes",
                    "name": "data",
                    "type": "bytes"
                }
            ],
            "name": "safeTransferFrom",
            "outputs": [],
            "stateMutability": "nonpayable",
            "type": "function"
        },
        {
            "inputs": [
                {
                    "internalType": "address",
                    "name": "operator",
                    "type": "address"
                },
                {
                    "internalType": "bool",
                    "name": "approved",
                    "type": "bool"
                }
            ],
            "name": "setApprovalForAll",
            "outputs": [],
            "stateMutability": "nonpayable",
            "type": "function"
        },
        {
            "inputs": [
                {
                    "internalType": "bytes32",
                    "name": "_notes",
                    "type": "bytes32"
                }
            ],
            "name": "setNotes",
            "outputs": [],
            "stateMutability": "nonpayable",
            "type": "function"
        },
        {
            "inputs": [
                {
                    "internalType": "bytes4",
                    "name": "interfaceId",
                    "type": "bytes4"
                }
            ],
            "name": "supportsInterface",
            "outputs": [
                {
                    "internalType": "bool",
                    "name": "",
                    "type": "bool"
                }
            ],
            "stateMutability": "view",
            "type": "function"
        },
        {
            "inputs": [
                {
                    "internalType": "uint256",
                    "name": "",
                    "type": "uint256"
                }
            ],
            "name": "uri",
            "outputs": [
                {
                    "internalType": "string",
                    "name": "",
                    "type": "string"
                }
            ],
            "stateMutability": "view",
            "type": "function"
        },
        {
            "inputs": [],
            "name": "withdraw",
            "outputs": [],
            "stateMutability": "nonpayable",
            "type": "function"
        }
    ],
    "bytecode": "0x608060405234801561001057600080fd5b50604051613c5e380380613c5e83398181016040528101906100329190610b98565b816100428161010960201b60201c565b5033600360006101000a81548173ffffffffffffffffffffffffffffffffffffffff021916908373ffffffffffffffffffffffffffffffffffffffff1602179055506100ae336001670de0b6b3a76400006040518060200160405280600081525061011c60201b60201c565b6100d8336002670de0b6b3a76400006040518060200160405280600081525061011c60201b60201c565b610102336003670de0b6b3a76400006040518060200160405280600081525061011c60201b60201c565b50506112aa565b80600290816101189190610e0b565b5050565b600073ffffffffffffffffffffffffffffffffffffffff168473ffffffffffffffffffffffffffffffffffffffff160361018e5760006040517f57f447ce0000000000000000000000000000000000000000000000000000000081526004016101859190610f1e565b60405180910390fd5b6000806101a185856101c160201b60201c565b915091506101b96000878484876101f160201b60201c565b505050505050565b60608060405191506001825283602083015260408201905060018152826020820152604081016040529250929050565b610203858585856102bb60201b60201c565b600073ffffffffffffffffffffffffffffffffffffffff168473ffffffffffffffffffffffffffffffffffffffff16146102b457600061024761066960201b60201c565b9050600184510361029d57600061026860008661067160201b90919060201c565b9050600061028060008661067160201b90919060201c565b905061029683898985858961068560201b60201c565b50506102b2565b6102b181878787878761083960201b60201c565b5b505b5050505050565b805182511461030557815181516040517f5b0599910000000000000000000000000000000000000000000000000000000081526004016102fc929190610f48565b60405180910390fd5b600061031561066960201b60201c565b905060005b8351811015610524576000610338828661067160201b90919060201c565b9050600061034f838661067160201b90919060201c565b9050600073ffffffffffffffffffffffffffffffffffffffff168873ffffffffffffffffffffffffffffffffffffffff161461047c57600080600084815260200190815260200160002060008a73ffffffffffffffffffffffffffffffffffffffff1673ffffffffffffffffffffffffffffffffffffffff1681526020019081526020016000205490508181101561042457888183856040517f03dee4c500000000000000000000000000000000000000000000000000000000815260040161041b9493929190610f71565b60405180910390fd5b81810360008085815260200190815260200160002060008b73ffffffffffffffffffffffffffffffffffffffff1673ffffffffffffffffffffffffffffffffffffffff16815260200190815260200160002081905550505b600073ffffffffffffffffffffffffffffffffffffffff168773ffffffffffffffffffffffffffffffffffffffff1614610517578060008084815260200190815260200160002060008973ffffffffffffffffffffffffffffffffffffffff1673ffffffffffffffffffffffffffffffffffffffff168152602001908152602001600020600082825461050f9190610fe5565b925050819055505b505080600101905061031a565b5060018351036105e357600061054460008561067160201b90919060201c565b9050600061055c60008561067160201b90919060201c565b90508573ffffffffffffffffffffffffffffffffffffffff168773ffffffffffffffffffffffffffffffffffffffff168473ffffffffffffffffffffffffffffffffffffffff167fc3d58168c5ae7397731d063d5bbf3d657854427343f4c083240f7aacaa2d0f6285856040516105d4929190610f48565b60405180910390a45050610662565b8373ffffffffffffffffffffffffffffffffffffffff168573ffffffffffffffffffffffffffffffffffffffff168273ffffffffffffffffffffffffffffffffffffffff167f4a39dc06d4c0dbc64b70af90fd698a233a518aa5d07e595d983b8c0526c8f7fb86866040516106599291906110d7565b60405180910390a45b5050505050565b600033905090565b600060208202602084010151905092915050565b60008473ffffffffffffffffffffffffffffffffffffffff163b1115610831578373ffffffffffffffffffffffffffffffffffffffff1663f23a6e6187878686866040518663ffffffff1660e01b81526004016106e6959493929190611163565b6020604051808303816000875af192505050801561072257506040513d601f19601f8201168201806040525081019061071f9190611215565b60015b6107a6573d8060008114610752576040519150601f19603f3d011682016040523d82523d6000602084013e610757565b606091505b50600081510361079e57846040517f57f447ce0000000000000000000000000000000000000000000000000000000081526004016107959190610f1e565b60405180910390fd5b805181602001fd5b63f23a6e6160e01b7bffffffffffffffffffffffffffffffffffffffffffffffffffffffff1916817bffffffffffffffffffffffffffffffffffffffffffffffffffffffff19161461082f57846040517f57f447ce0000000000000000000000000000000000000000000000000000000081526004016108269190610f1e565b60405180910390fd5b505b505050505050565b60008473ffffffffffffffffffffffffffffffffffffffff163b11156109e5578373ffffffffffffffffffffffffffffffffffffffff1663bc197c8187878686866040518663ffffffff1660e01b815260040161089a959493929190611242565b6020604051808303816000875af19250505080156108d657506040513d601f19601f820116820180604052508101906108d39190611215565b60015b61095a573d8060008114610906576040519150601f19603f3d011682016040523d82523d6000602084013e61090b565b606091505b50600081510361095257846040517f57f447ce0000000000000000000000000000000000000000000000000000000081526004016109499190610f1e565b60405180910390fd5b805181602001fd5b63bc197c8160e01b7bffffffffffffffffffffffffffffffffffffffffffffffffffffffff1916817bffffffffffffffffffffffffffffffffffffffffffffffffffffffff1916146109e357846040517f57f447ce0000000000000000000000000000000000000000000000000000000081526004016109da9190610f1e565b60405180910390fd5b505b505050505050565b6000604051905090565b600080fd5b600080fd5b600080fd5b600080fd5b6000601f19601f8301169050919050565b7f4e487b7100000000000000000000000000000000000000000000000000000000600052604160045260246000fd5b610a5482610a0b565b810181811067ffffffffffffffff82111715610a7357610a72610a1c565b5b80604052505050565b6000610a866109ed565b9050610a928282610a4b565b919050565b600067ffffffffffffffff821115610ab257610ab1610a1c565b5b610abb82610a0b565b9050602081019050919050565b60005b83811015610ae6578082015181840152602081019050610acb565b60008484015250505050565b6000610b05610b0084610a97565b610a7c565b905082815260208101848484011115610b2157610b20610a06565b5b610b2c848285610ac8565b509392505050565b600082601f830112610b4957610b48610a01565b5b8151610b59848260208601610af2565b91505092915050565b6000819050919050565b610b7581610b62565b8114610b8057600080fd5b50565b600081519050610b9281610b6c565b92915050565b60008060408385031215610baf57610bae6109f7565b5b600083015167ffffffffffffffff811115610bcd57610bcc6109fc565b5b610bd985828601610b34565b9250506020610bea85828601610b83565b9150509250929050565b600081519050919050565b7f4e487b7100000000000000000000000000000000000000000000000000000000600052602260045260246000fd5b60006002820490506001821680610c4657607f821691505b602082108103610c5957610c58610bff565b5b50919050565b60008190508160005260206000209050919050565b60006020601f8301049050919050565b600082821b905092915050565b600060088302610cc17fffffffffffffffffffffffffffffffffffffffffffffffffffffffffffffffff82610c84565b610ccb8683610c84565b95508019841693508086168417925050509392505050565b6000819050919050565b6000610d08610d03610cfe84610b62565b610ce3565b610b62565b9050919050565b6000819050919050565b610d2283610ced565b610d36610d2e82610d0f565b848454610c91565b825550505050565b600090565b610d4b610d3e565b610d56818484610d19565b505050565b5b81811015610d7a57610d6f600082610d43565b600181019050610d5c565b5050565b601f821115610dbf57610d9081610c5f565b610d9984610c74565b81016020851015610da8578190505b610dbc610db485610c74565b830182610d5b565b50505b505050565b600082821c905092915050565b6000610de260001984600802610dc4565b1980831691505092915050565b6000610dfb8383610dd1565b9150826002028217905092915050565b610e1482610bf4565b67ffffffffffffffff811115610e2d57610e2c610a1c565b5b610e378254610c2e565b610e42828285610d7e565b600060209050601f831160018114610e755760008415610e63578287015190505b610e6d8582610def565b865550610ed5565b601f198416610e8386610c5f565b60005b82811015610eab57848901518255600182019150602085019450602081019050610e86565b86831015610ec85784890151610ec4601f891682610dd1565b8355505b6001600288020188555050505b505050505050565b600073ffffffffffffffffffffffffffffffffffffffff82169050919050565b6000610f0882610edd565b9050919050565b610f1881610efd565b82525050565b6000602082019050610f336000830184610f0f565b92915050565b610f4281610b62565b82525050565b6000604082019050610f5d6000830185610f39565b610f6a6020830184610f39565b9392505050565b6000608082019050610f866000830187610f0f565b610f936020830186610f39565b610fa06040830185610f39565b610fad6060830184610f39565b95945050505050565b7f4e487b7100000000000000000000000000000000000000000000000000000000600052601160045260246000fd5b6000610ff082610b62565b9150610ffb83610b62565b925082820190508082111561101357611012610fb6565b5b92915050565b600081519050919050565b600082825260208201905092915050565b6000819050602082019050919050565b61104e81610b62565b82525050565b60006110608383611045565b60208301905092915050565b6000602082019050919050565b600061108482611019565b61108e8185611024565b935061109983611035565b8060005b838110156110ca5781516110b18882611054565b97506110bc8361106c565b92505060018101905061109d565b5085935050505092915050565b600060408201905081810360008301526110f18185611079565b905081810360208301526111058184611079565b90509392505050565b600081519050919050565b600082825260208201905092915050565b60006111358261110e565b61113f8185611119565b935061114f818560208601610ac8565b61115881610a0b565b840191505092915050565b600060a0820190506111786000830188610f0f565b6111856020830187610f0f565b6111926040830186610f39565b61119f6060830185610f39565b81810360808301526111b1818461112a565b90509695505050505050565b60007fffffffff0000000000000000000000000000000000000000000000000000000082169050919050565b6111f2816111bd565b81146111fd57600080fd5b50565b60008151905061120f816111e9565b92915050565b60006020828403121561122b5761122a6109f7565b5b600061123984828501611200565b91505092915050565b600060a0820190506112576000830188610f0f565b6112646020830187610f0f565b81810360408301526112768186611079565b9050818103606083015261128a8185611079565b9050818103608083015261129e818461112a565b90509695505050505050565b6129a5806112b96000396000f3fe6080604052600436106101085760003560e01c80633e5be84611610095578063841d8fc211610064578063841d8fc2146103815780638da5cb5b146103ac578063a22cb465146103d7578063e985e9c514610400578063f242432a1461043d57610108565b80633e5be846146102c55780634e1273f4146102f05780635b3e43b91461032d57806371f36e361461035657610108565b80631f15cd50116100dc5780631f15cd50146101ef57806322b0ecf41461022c5780632eb2c2d614610269578063339b6d47146102925780633ccfd60b146102ae57610108565b8062fdd58e1461010d57806301ffc9a71461014a5780630e89341c1461018757806311b7bec6146101c4575b600080fd5b34801561011957600080fd5b50610134600480360381019061012f9190611a73565b610466565b6040516101419190611ac2565b60405180910390f35b34801561015657600080fd5b50610171600480360381019061016c9190611b35565b6104c0565b60405161017e9190611b7d565b60405180910390f35b34801561019357600080fd5b506101ae60048036038101906101a99190611b98565b6105a2565b6040516101bb9190611c55565b60405180910390f35b3480156101d057600080fd5b506101d9610636565b6040516101e69190611ac2565b60405180910390f35b3480156101fb57600080fd5b5061021660048036038101906102119190611b98565b61063b565b6040516102239190611ac2565b60405180910390f35b34801561023857600080fd5b50610253600480360381019061024e9190611b98565b610653565b6040516102609190611ac2565b60405180910390f35b34801561027557600080fd5b50610290600480360381019061028b9190611e74565b61066b565b005b6102ac60048036038101906102a79190611fca565b610713565b005b3480156102ba57600080fd5b506102c36109a6565b005b3480156102d157600080fd5b506102da610aa1565b6040516102e79190611ac2565b60405180910390f35b3480156102fc57600080fd5b5061031760048036038101906103129190612122565b610aa6565b6040516103249190612258565b60405180910390f35b34801561033957600080fd5b50610354600480360381019061034f91906122b0565b610baf565b005b34801561036257600080fd5b5061036b610c49565b60405161037891906122ec565b60405180910390f35b34801561038d57600080fd5b50610396610c4f565b6040516103a39190611ac2565b60405180910390f35b3480156103b857600080fd5b506103c1610c54565b6040516103ce9190612328565b60405180910390f35b3480156103e357600080fd5b506103fe60048036038101906103f99190612343565b610c7a565b005b34801561040c57600080fd5b5061042760048036038101906104229190612383565b610c90565b6040516104349190611b7d565b60405180910390f35b34801561044957600080fd5b50610464600480360381019061045f91906123c3565b610d24565b005b600080600083815260200190815260200160002060008473ffffffffffffffffffffffffffffffffffffffff1673ffffffffffffffffffffffffffffffffffffffff16815260200190815260200160002054905092915050565b60007fd9b67a26000000000000000000000000000000000000000000000000000000007bffffffffffffffffffffffffffffffffffffffffffffffffffffffff1916827bffffffffffffffffffffffffffffffffffffffffffffffffffffffff1916148061058b57507f0e89341c000000000000000000000000000000000000000000000000000000007bffffffffffffffffffffffffffffffffffffffffffffffffffffffff1916827bffffffffffffffffffffffffffffffffffffffffffffffffffffffff1916145b8061059b575061059a82610dcc565b5b9050919050565b6060600280546105b190612489565b80601f01602080910402602001604051908101604052809291908181526020018280546105dd90612489565b801561062a5780601f106105ff5761010080835404028352916020019161062a565b820191906000526020600020905b81548152906001019060200180831161060d57829003601f168201915b50505050509050919050565b600281565b60056020528060005260406000206000915090505481565b60066020528060005260406000206000915090505481565b6000610675610e36565b90508073ffffffffffffffffffffffffffffffffffffffff168673ffffffffffffffffffffffffffffffffffffffff16141580156106ba57506106b88682610c90565b155b156106fe5780866040517fe237d9220000000000000000000000000000000000000000000000000000000081526004016106f59291906124c9565b60405180910390fd5b61070b8686868686610e3e565b505050505050565b6001610754576040517f08c379a000000000000000000000000000000000000000000000000000000000815260040161074b90612564565b60405180910390fd5b8415610845576000828260008181106107705761076f612584565b5b905060200201356611c37937e0800061078991906125e2565b90508034116107cd576040517f08c379a00000000000000000000000000000000000000000000000000000000081526004016107c490612696565b60405180910390fd5b61083f600360009054906101000a900473ffffffffffffffffffffffffffffffffffffffff16338787600081811061080857610807612584565b5b905060200201358686600081811061082357610822612584565b5b9050602002013560405180602001604052806000815250610d24565b5061099f565b6000805b8383905081101561089a5783838281811061086757610866612584565b5b905060200201356611c37937e0800061088091906125e2565b8261088b91906126b6565b91508080600101915050610849565b508034116108dd576040517f08c379a00000000000000000000000000000000000000000000000000000000081526004016108d490612696565b60405180910390fd5b61099d600360009054906101000a900473ffffffffffffffffffffffffffffffffffffffff1633878780806020026020016040519081016040528093929190818152602001838360200280828437600081840152601f19601f82011690508083019250505050505050868680806020026020016040519081016040528093929190818152602001838360200280828437600081840152601f19601f820116905080830192505050505050506040518060200160405280600081525061066b565b505b5050505050565b600360009054906101000a900473ffffffffffffffffffffffffffffffffffffffff1673ffffffffffffffffffffffffffffffffffffffff163373ffffffffffffffffffffffffffffffffffffffff1614610a36576040517f08c379a0000000000000000000000000000000000000000000000000000000008152600401610a2d90612736565b60405180910390fd5b600360009054906101000a900473ffffffffffffffffffffffffffffffffffffffff1673ffffffffffffffffffffffffffffffffffffffff166108fc479081150290604051600060405180830381858888f19350505050158015610a9e573d6000803e3d6000fd5b50565b600181565b60608151835114610af257815183516040517f5b059991000000000000000000000000000000000000000000000000000000008152600401610ae9929190612756565b60405180910390fd5b6000835167ffffffffffffffff811115610b0f57610b0e611c7c565b5b604051908082528060200260200182016040528015610b3d5781602001602082028036833780820191505090505b50905060005b8451811015610ba457610b7a610b628287610f3690919063ffffffff16565b610b758387610f4a90919063ffffffff16565b610466565b828281518110610b8d57610b8c612584565b5b602002602001018181525050806001019050610b43565b508091505092915050565b600360009054906101000a900473ffffffffffffffffffffffffffffffffffffffff1673ffffffffffffffffffffffffffffffffffffffff163373ffffffffffffffffffffffffffffffffffffffff1614610c3f576040517f08c379a0000000000000000000000000000000000000000000000000000000008152600401610c3690612736565b60405180910390fd5b8060048190555050565b60045481565b600381565b600360009054906101000a900473ffffffffffffffffffffffffffffffffffffffff1681565b610c8c610c85610e36565b8383610f5e565b5050565b6000600160008473ffffffffffffffffffffffffffffffffffffffff1673ffffffffffffffffffffffffffffffffffffffff16815260200190815260200160002060008373ffffffffffffffffffffffffffffffffffffffff1673ffffffffffffffffffffffffffffffffffffffff16815260200190815260200160002060009054906101000a900460ff16905092915050565b6000610d2e610e36565b90508073ffffffffffffffffffffffffffffffffffffffff168673ffffffffffffffffffffffffffffffffffffffff1614158015610d735750610d718682610c90565b155b15610db75780866040517fe237d922000000000000000000000000000000000000000000000000000000008152600401610dae9291906124c9565b60405180910390fd5b610dc486868686866110ce565b505050505050565b60007f01ffc9a7000000000000000000000000000000000000000000000000000000007bffffffffffffffffffffffffffffffffffffffffffffffffffffffff1916827bffffffffffffffffffffffffffffffffffffffffffffffffffffffff1916149050919050565b600033905090565b600073ffffffffffffffffffffffffffffffffffffffff168473ffffffffffffffffffffffffffffffffffffffff1603610eb05760006040517f57f447ce000000000000000000000000000000000000000000000000000000008152600401610ea7919061277f565b60405180910390fd5b600073ffffffffffffffffffffffffffffffffffffffff168573ffffffffffffffffffffffffffffffffffffffff1603610f225760006040517f01a83514000000000000000000000000000000000000000000000000000000008152600401610f19919061277f565b60405180910390fd5b610f2f85858585856111d9565b5050505050565b600060208202602084010151905092915050565b600060208202602084010151905092915050565b600073ffffffffffffffffffffffffffffffffffffffff168273ffffffffffffffffffffffffffffffffffffffff1603610fd05760006040517fced3e100000000000000000000000000000000000000000000000000000000008152600401610fc7919061277f565b60405180910390fd5b80600160008573ffffffffffffffffffffffffffffffffffffffff1673ffffffffffffffffffffffffffffffffffffffff16815260200190815260200160002060008473ffffffffffffffffffffffffffffffffffffffff1673ffffffffffffffffffffffffffffffffffffffff16815260200190815260200160002060006101000a81548160ff0219169083151502179055508173ffffffffffffffffffffffffffffffffffffffff168373ffffffffffffffffffffffffffffffffffffffff167f17307eab39ab6107e8899845ad3d59bd9653f200f220920489ca2b5937696c31836040516110c19190611b7d565b60405180910390a3505050565b600073ffffffffffffffffffffffffffffffffffffffff168473ffffffffffffffffffffffffffffffffffffffff16036111405760006040517f57f447ce000000000000000000000000000000000000000000000000000000008152600401611137919061277f565b60405180910390fd5b600073ffffffffffffffffffffffffffffffffffffffff168573ffffffffffffffffffffffffffffffffffffffff16036111b25760006040517f01a835140000000000000000000000000000000000000000000000000000000081526004016111a9919061277f565b60405180910390fd5b6000806111bf858561128b565b915091506111d087878484876111d9565b50505050505050565b6111e5858585856112bb565b600073ffffffffffffffffffffffffffffffffffffffff168473ffffffffffffffffffffffffffffffffffffffff1614611284576000611223610e36565b90506001845103611273576000611244600086610f4a90919063ffffffff16565b9050600061125c600086610f4a90919063ffffffff16565b905061126c838989858589611663565b5050611282565b611281818787878787611817565b5b505b5050505050565b60608060405191506001825283602083015260408201905060018152826020820152604081016040529250929050565b805182511461130557815181516040517f5b0599910000000000000000000000000000000000000000000000000000000081526004016112fc929190612756565b60405180910390fd5b600061130f610e36565b905060005b835181101561151e5760006113328286610f4a90919063ffffffff16565b905060006113498386610f4a90919063ffffffff16565b9050600073ffffffffffffffffffffffffffffffffffffffff168873ffffffffffffffffffffffffffffffffffffffff161461147657600080600084815260200190815260200160002060008a73ffffffffffffffffffffffffffffffffffffffff1673ffffffffffffffffffffffffffffffffffffffff1681526020019081526020016000205490508181101561141e57888183856040517f03dee4c5000000000000000000000000000000000000000000000000000000008152600401611415949392919061279a565b60405180910390fd5b81810360008085815260200190815260200160002060008b73ffffffffffffffffffffffffffffffffffffffff1673ffffffffffffffffffffffffffffffffffffffff16815260200190815260200160002081905550505b600073ffffffffffffffffffffffffffffffffffffffff168773ffffffffffffffffffffffffffffffffffffffff1614611511578060008084815260200190815260200160002060008973ffffffffffffffffffffffffffffffffffffffff1673ffffffffffffffffffffffffffffffffffffffff168152602001908152602001600020600082825461150991906126b6565b925050819055505b5050806001019050611314565b5060018351036115dd57600061153e600085610f4a90919063ffffffff16565b90506000611556600085610f4a90919063ffffffff16565b90508573ffffffffffffffffffffffffffffffffffffffff168773ffffffffffffffffffffffffffffffffffffffff168473ffffffffffffffffffffffffffffffffffffffff167fc3d58168c5ae7397731d063d5bbf3d657854427343f4c083240f7aacaa2d0f6285856040516115ce929190612756565b60405180910390a4505061165c565b8373ffffffffffffffffffffffffffffffffffffffff168573ffffffffffffffffffffffffffffffffffffffff168273ffffffffffffffffffffffffffffffffffffffff167f4a39dc06d4c0dbc64b70af90fd698a233a518aa5d07e595d983b8c0526c8f7fb86866040516116539291906127df565b60405180910390a45b5050505050565b60008473ffffffffffffffffffffffffffffffffffffffff163b111561180f578373ffffffffffffffffffffffffffffffffffffffff1663f23a6e6187878686866040518663ffffffff1660e01b81526004016116c495949392919061286b565b6020604051808303816000875af192505050801561170057506040513d601f19601f820116820180604052508101906116fd91906128da565b60015b611784573d8060008114611730576040519150601f19603f3d011682016040523d82523d6000602084013e611735565b606091505b50600081510361177c57846040517f57f447ce000000000000000000000000000000000000000000000000000000008152600401611773919061277f565b60405180910390fd5b805181602001fd5b63f23a6e6160e01b7bffffffffffffffffffffffffffffffffffffffffffffffffffffffff1916817bffffffffffffffffffffffffffffffffffffffffffffffffffffffff19161461180d57846040517f57f447ce000000000000000000000000000000000000000000000000000000008152600401611804919061277f565b60405180910390fd5b505b505050505050565b60008473ffffffffffffffffffffffffffffffffffffffff163b11156119c3578373ffffffffffffffffffffffffffffffffffffffff1663bc197c8187878686866040518663ffffffff1660e01b8152600401611878959493929190612907565b6020604051808303816000875af19250505080156118b457506040513d601f19601f820116820180604052508101906118b191906128da565b60015b611938573d80600081146118e4576040519150601f19603f3d011682016040523d82523d6000602084013e6118e9565b606091505b50600081510361193057846040517f57f447ce000000000000000000000000000000000000000000000000000000008152600401611927919061277f565b60405180910390fd5b805181602001fd5b63bc197c8160e01b7bffffffffffffffffffffffffffffffffffffffffffffffffffffffff1916817bffffffffffffffffffffffffffffffffffffffffffffffffffffffff1916146119c157846040517f57f447ce0000000000000000000000000000000000000000000000000000000081526004016119b8919061277f565b60405180910390fd5b505b505050505050565b6000604051905090565b600080fd5b600080fd5b600073ffffffffffffffffffffffffffffffffffffffff82169050919050565b6000611a0a826119df565b9050919050565b611a1a816119ff565b8114611a2557600080fd5b50565b600081359050611a3781611a11565b92915050565b6000819050919050565b611a5081611a3d565b8114611a5b57600080fd5b50565b600081359050611a6d81611a47565b92915050565b60008060408385031215611a8a57611a896119d5565b5b6000611a9885828601611a28565b9250506020611aa985828601611a5e565b9150509250929050565b611abc81611a3d565b82525050565b6000602082019050611ad76000830184611ab3565b92915050565b60007fffffffff0000000000000000000000000000000000000000000000000000000082169050919050565b611b1281611add565b8114611b1d57600080fd5b50565b600081359050611b2f81611b09565b92915050565b600060208284031215611b4b57611b4a6119d5565b5b6000611b5984828501611b20565b91505092915050565b60008115159050919050565b611b7781611b62565b82525050565b6000602082019050611b926000830184611b6e565b92915050565b600060208284031215611bae57611bad6119d5565b5b6000611bbc84828501611a5e565b91505092915050565b600081519050919050565b600082825260208201905092915050565b60005b83811015611bff578082015181840152602081019050611be4565b60008484015250505050565b6000601f19601f8301169050919050565b6000611c2782611bc5565b611c318185611bd0565b9350611c41818560208601611be1565b611c4a81611c0b565b840191505092915050565b60006020820190508181036000830152611c6f8184611c1c565b905092915050565b600080fd5b7f4e487b7100000000000000000000000000000000000000000000000000000000600052604160045260246000fd5b611cb482611c0b565b810181811067ffffffffffffffff82111715611cd357611cd2611c7c565b5b80604052505050565b6000611ce66119cb565b9050611cf28282611cab565b919050565b600067ffffffffffffffff821115611d1257611d11611c7c565b5b602082029050602081019050919050565b600080fd5b6000611d3b611d3684611cf7565b611cdc565b90508083825260208201905060208402830185811115611d5e57611d5d611d23565b5b835b81811015611d875780611d738882611a5e565b845260208401935050602081019050611d60565b5050509392505050565b600082601f830112611da657611da5611c77565b5b8135611db6848260208601611d28565b91505092915050565b600080fd5b600067ffffffffffffffff821115611ddf57611dde611c7c565b5b611de882611c0b565b9050602081019050919050565b82818337600083830152505050565b6000611e17611e1284611dc4565b611cdc565b905082815260208101848484011115611e3357611e32611dbf565b5b611e3e848285611df5565b509392505050565b600082601f830112611e5b57611e5a611c77565b5b8135611e6b848260208601611e04565b91505092915050565b600080600080600060a08688031215611e9057611e8f6119d5565b5b6000611e9e88828901611a28565b9550506020611eaf88828901611a28565b945050604086013567ffffffffffffffff811115611ed057611ecf6119da565b5b611edc88828901611d91565b935050606086013567ffffffffffffffff811115611efd57611efc6119da565b5b611f0988828901611d91565b925050608086013567ffffffffffffffff811115611f2a57611f296119da565b5b611f3688828901611e46565b9150509295509295909350565b611f4c81611b62565b8114611f5757600080fd5b50565b600081359050611f6981611f43565b92915050565b600080fd5b60008083601f840112611f8a57611f89611c77565b5b8235905067ffffffffffffffff811115611fa757611fa6611f6f565b5b602083019150836020820283011115611fc357611fc2611d23565b5b9250929050565b600080600080600060608688031215611fe657611fe56119d5565b5b6000611ff488828901611f5a565b955050602086013567ffffffffffffffff811115612015576120146119da565b5b61202188828901611f74565b9450945050604086013567ffffffffffffffff811115612044576120436119da565b5b61205088828901611f74565b92509250509295509295909350565b600067ffffffffffffffff82111561207a57612079611c7c565b5b602082029050602081019050919050565b600061209e6120998461205f565b611cdc565b905080838252602082019050602084028301858111156120c1576120c0611d23565b5b835b818110156120ea57806120d68882611a28565b8452602084019350506020810190506120c3565b5050509392505050565b600082601f83011261210957612108611c77565b5b813561211984826020860161208b565b91505092915050565b60008060408385031215612139576121386119d5565b5b600083013567ffffffffffffffff811115612157576121566119da565b5b612163858286016120f4565b925050602083013567ffffffffffffffff811115612184576121836119da565b5b61219085828601611d91565b9150509250929050565b600081519050919050565b600082825260208201905092915050565b6000819050602082019050919050565b6121cf81611a3d565b82525050565b60006121e183836121c6565b60208301905092915050565b6000602082019050919050565b60006122058261219a565b61220f81856121a5565b935061221a836121b6565b8060005b8381101561224b57815161223288826121d5565b975061223d836121ed565b92505060018101905061221e565b5085935050505092915050565b6000602082019050818103600083015261227281846121fa565b905092915050565b6000819050919050565b61228d8161227a565b811461229857600080fd5b50565b6000813590506122aa81612284565b92915050565b6000602082840312156122c6576122c56119d5565b5b60006122d48482850161229b565b91505092915050565b6122e68161227a565b82525050565b600060208201905061230160008301846122dd565b92915050565b6000612312826119df565b9050919050565b61232281612307565b82525050565b600060208201905061233d6000830184612319565b92915050565b6000806040838503121561235a576123596119d5565b5b600061236885828601611a28565b925050602061237985828601611f5a565b9150509250929050565b6000806040838503121561239a576123996119d5565b5b60006123a885828601611a28565b92505060206123b985828601611a28565b9150509250929050565b600080600080600060a086880312156123df576123de6119d5565b5b60006123ed88828901611a28565b95505060206123fe88828901611a28565b945050604061240f88828901611a5e565b935050606061242088828901611a5e565b925050608086013567ffffffffffffffff811115612441576124406119da565b5b61244d88828901611e46565b9150509295509295909350565b7f4e487b7100000000000000000000000000000000000000000000000000000000600052602260045260246000fd5b600060028204905060018216806124a157607f821691505b6020821081036124b4576124b361245a565b5b50919050565b6124c3816119ff565b82525050565b60006040820190506124de60008301856124ba565b6124eb60208301846124ba565b9392505050565b7f436f756c64206e6f7420696e7665737420696e207468697320636f6c6c61746560008201527f72616c20616e796d6f7265000000000000000000000000000000000000000000602082015250565b600061254e602b83611bd0565b9150612559826124f2565b604082019050919050565b6000602082019050818103600083015261257d81612541565b9050919050565b7f4e487b7100000000000000000000000000000000000000000000000000000000600052603260045260246000fd5b7f4e487b7100000000000000000000000000000000000000000000000000000000600052601160045260246000fd5b60006125ed82611a3d565b91506125f883611a3d565b925082820261260681611a3d565b9150828204841483151761261d5761261c6125b3565b5b5092915050565b7f4e6f7420656e6f7567682065746820746f2073617469736679207472616e736160008201527f6374696f6e000000000000000000000000000000000000000000000000000000602082015250565b6000612680602583611bd0565b915061268b82612624565b604082019050919050565b600060208201905081810360008301526126af81612673565b9050919050565b60006126c182611a3d565b91506126cc83611a3d565b92508282019050808211156126e4576126e36125b3565b5b92915050565b7f43616c6c6572206e6f7420616e206f776e657200000000000000000000000000600082015250565b6000612720601383611bd0565b915061272b826126ea565b602082019050919050565b6000602082019050818103600083015261274f81612713565b9050919050565b600060408201905061276b6000830185611ab3565b6127786020830184611ab3565b9392505050565b600060208201905061279460008301846124ba565b92915050565b60006080820190506127af60008301876124ba565b6127bc6020830186611ab3565b6127c96040830185611ab3565b6127d66060830184611ab3565b95945050505050565b600060408201905081810360008301526127f981856121fa565b9050818103602083015261280d81846121fa565b90509392505050565b600081519050919050565b600082825260208201905092915050565b600061283d82612816565b6128478185612821565b9350612857818560208601611be1565b61286081611c0b565b840191505092915050565b600060a08201905061288060008301886124ba565b61288d60208301876124ba565b61289a6040830186611ab3565b6128a76060830185611ab3565b81810360808301526128b98184612832565b90509695505050505050565b6000815190506128d481611b09565b92915050565b6000602082840312156128f0576128ef6119d5565b5b60006128fe848285016128c5565b91505092915050565b600060a08201905061291c60008301886124ba565b61292960208301876124ba565b818103604083015261293b81866121fa565b9050818103606083015261294f81856121fa565b905081810360808301526129638184612832565b9050969550505050505056fea26469706673582212201282f891703fb77cad2d45567fd810cb241da55130c0bf528fabad950566d25664736f6c634300081b0033",
    "linkReferences": {},
    "deployedLinkReferences": {}
}